:100000000C945C000C9479000C9479000C947900A9
:100010000C9479000C9479000C9479000C9479007C
:100020000C9479000C9479000C9479000C9479006C
:100030000C9479000C9479000C9479000C9479005C
:100040000C9433010C9479000C9479000C94790091
:100050000C9479000C9479000C9479000C9479003C
:100060000C9479000C947900000000070002010054
:100070000003040600000000000000000102040864
:100080001020408001020408102001020408102002
:10009000040404040404040402020202020203032E
:1000A0000303030300000000250028002B000000CC
:1000B0000000240027002A0011241FBECFEFD8E043
:1000C000DEBFCDBF11E0A0E0B1E0EEE2F4E002C09F
:1000D00005900D92A230B107D9F711E0A2E0B1E08E
:1000E00001C01D92AB30B107E1F70E9408020C94E9
:1000F00015020C94000061E0809100010C94C40092
:10010000CF93DF93C0E0D1E061E088810E94FC00E2
:1001100068EE73E080E090E00E94A70160E08881D3
:100120000E94FC0068EE73E080E090E0DF91CF91E8
:100130000C94A701833069F028F48130A1F082305B
:1001400011F514C08630B1F08730C1F08430D9F495
:1001500004C0809180008F7703C0809180008F7DE4
:1001600080938000089584B58F7702C084B58F7D19
:1001700084BD08958091B0008F7703C08091B00056
:100180008F7D8093B0000895CF93DF9390E0FC01C2
:10019000E458FF4F4491FC01E057FF4F84918823BE
:1001A00041F190E0880F991FFC01E255FF4F259126
:1001B0003491D9018C559F4FFC0185919491C82FA2
:1001C000D92F9FB7F8948C91611106C04095842374
:1001D0008C938881842308C0623041F4242F2095B9
:1001E00082238C938881842B888302C0842B8C93F8
:1001F0009FBFDF91CF9108950F931F93CF93DF930C
:100200001F92CDB7DEB7282F30E0F901E859FF4F34
:100210008491F901E458FF4F1491F901E057FF4F21
:1002200004910023D1F0882321F069830E949A0071
:100230006981E02FF0E0EE0FFF1FEC55FF4F859135
:100240009491DC019FB7F8948C91611103C01095D3
:10025000812301C0812B8C939FBF0F90DF91CF91A1
:100260001F910F9108951F920F920FB60F921124B4
:100270002F933F938F939F93AF93BF9380910201EE
:1002800090910301A0910401B091050130910A0100
:10029000232F2D5F2D3720F40196A11DB11D05C020
:1002A000232F2A570296A11DB11D20930A01809386
:1002B000020190930301A0930401B0930501809182
:1002C000060190910701A0910801B09109010196E2
:1002D000A11DB11D8093060190930701A093080111
:1002E000B0930901BF91AF919F918F913F912F9151
:1002F0000F900FBE0F901F9018950F931F939FB7ED
:10030000F8940091060110910701209108013091A5
:10031000090186B5A89B06C08F3F21F00F5F1F4FD4
:100320002F4F3F4F9FBF322F212F102F0027080F35
:10033000111D211D311D42E0000F111F221F331F0F
:100340004A95D1F7B801C9011F910F910895CF9235
:10035000DF92EF92FF92CF93DF936B017C010E94BB
:100360007D01EB010EC00E947D016C1B7D0B683E80
:10037000734038F081E0C81AD108E108F108C8518B
:10038000DC4FC114D104E104F10469F7DF91CF918E
:10039000FF90EF90DF90CF900895789484B58260BD
:1003A00084BD84B5816084BD85B5826085BD85B519
:1003B000816085BDEEE6F0E0808181608083E1E8C8
:1003C000F0E0108280818260808380818160808300
:1003D000E0E8F0E0808181608083E1EBF0E0808103
:1003E00084608083E0EBF0E0808181608083EAE7D5
:1003F000F0E080818460808380818260808380815E
:10040000816080838081806880831092C10008951C
:100410000E94CD010E947B00C0E0D0E00E948000DD
:0E0420002097E1F30E940000F9CFF894FFCF7F
:02042E000D00BF
:00000001FF
