:100000000C9462000C948A000C948A000C948A0070
:100010000C948A000C948A000C948A000C948A0038
:100020000C948A000C948A000C948A000C948A0028
:100030000C948A000C948A000C948A000C948A0018
:100040000C949F030C948A000C94AA060C94E60668
:100050000C948A000C948A000C948A000C948A00F8
:100060000C948A000C948A00000000070002010032
:100070000003040600000000000000000102040864
:100080001020408001020408102001020408102002
:10009000040404040404040402020202020203032E
:1000A00003030303000000002300260029000000D2
:1000B0000000250028002B0000000000240027007D
:1000C0002A00A10711241FBECFEFD8E0DEBFCDBFAD
:1000D00011E0A0E0B1E0ECEBF0E102C005900D9280
:1000E000A432B107D9F711E0A4E2B1E001C01D923A
:1000F000A43EB107E1F710E0C4ECD0E004C02297C1
:10010000FE010E944C08C23CD107C9F70E940106BB
:100110000C945C080C94000060E082E00E94850270
:1001200061E08CE00E94850261E089E00E94850226
:1001300061E08AE00E94850261E08DE00E94850214
:1001400040E855E260E070E08DE391E00C94210717
:100150008EE00E941D039093010180930001209185
:100160000201309103012817390724F49093030109
:1001700080930201209104013091050182179307B9
:1001800024F490930501809304016091040170911F
:1001900005014AE050E08DE391E00E94DF0561E156
:1001A00071E08DE391E00E9405056091020170917C
:1001B00003014AE050E08DE391E00E94DF0561E138
:1001C00071E08DE391E00E9405056091000170915E
:1001D00001014AE050E08DE391E00E94E70564E10F
:1001E00070E080E090E00C942504AF92BF92CF9233
:1001F000DF92EF92FF920F931F930E94E9036093A7
:10020000240170932501809326019093270182E0B9
:100210000E94F40280933001882309F427C160E032
:100220008DE00E94BD0280E00E941D0390930101B9
:1002300080930001E0900201F09003010027F7FC99
:100240000095102F2091040130910501442737FDBE
:100250004095542FBC01882777FD8095982F1F92D9
:100260001F92E3E1EF93E8E8EF93A12CB12C650135
:100270000E9486040F900F900F900F90693883E1D1
:10028000780714F068E873E1CB0177FF02C080E0E3
:1002900090E09093010180930001AA2797FDA0951B
:1002A000BA2F80930A0190930B01A0930C01B09395
:1002B0000D018091240190912501A0912601B0911A
:1002C000270140912C0150912D0160912E017091D8
:1002D0002F018C019D01041B150B260B370B409140
:1002E00006015091070160910801709109014017C2
:1002F000510762077307A0F580932C0190932D019D
:10030000A0932E01B0932F016091320170913301BF
:1003100089E00E943E036FEF70E08091320190917E
:100320003301681B790B8AE00E943E0320910E0185
:1003300030910F018091320190913301820F931F10
:100340009093330180933201009719F08F3F91050C
:1003500039F431952195310930930F0120930E0125
:100360008091240190912501A0912601B09127014F
:10037000409128015091290160912A0170912B012F
:100380008C019D01041B150B260B370B40910A01B4
:1003900050910B0160910C0170910D0140175107B4
:1003A0006207730708F07EC08093280190932901AB
:1003B000A0932A01B0932B0161E08091310181115A
:1003C00060E0609331018CE00E94BD024AE050E0A1
:1003D000609131018DE391E00E948D0561E171E052
:1003E0008DE391E00E940505609132017091330127
:1003F0004AE050E08DE391E00E94DF0561E171E0A9
:100400008DE391E00E940505609104017091050162
:100410004AE050E08DE391E00E94DF0561E171E088
:100420008DE391E00E940505609102017091030146
:100430004AE050E08DE391E00E94DF0561E171E068
:100440008DE391E00E94050560910001709101012A
:100450004AE050E08DE391E01F910F91FF90EF9003
:10046000DF90CF90BF90AF900C94E70561E08DE0F6
:100470000E94BD0260E070E089E00E943E0360E0FF
:1004800070E08AE00E943E0360E08CE00E94BD02C2
:100490001F910F91FF90EF90DF90CF90BF90AF90A2
:1004A0000C94A8001F910F91FF90EF90DF90CF90D8
:1004B000BF90AF900895833069F028F48130A1F0A7
:1004C000823011F514C08630B1F08730C1F084302D
:1004D000D9F404C0809180008F7703C080918000A0
:1004E0008F7D80938000089584B58F7702C084B596
:1004F0008F7D84BD08958091B0008F7703C0809177
:10050000B0008F7D8093B0000895CF93DF9390E08B
:10051000FC01E458FF4F4491FC01E057FF4F8491E8
:10052000882341F190E0880F991FFC01E854FF4FA8
:1005300025913491D90182559F4FFC018591949169
:10054000C82FD92F9FB7F8948C91611106C04095A0
:1005500084238C938881842308C0623041F4242F43
:10056000209582238C938881842B888302C0842BDE
:100570008C939FBFDF91CF9108950F931F93CF93DB
:10058000DF931F92CDB7DEB7282F30E0F901E8598D
:10059000FF4F8491F901E458FF4F1491F901E0579E
:1005A000FF4F04910023D1F0882321F069830E943A
:1005B0005B026981E02FF0E0EE0FFF1FE255FF4F75
:1005C00085919491DC019FB7F8948C91611103C0DF
:1005D0001095812301C0812B8C939FBF0F90DF91D9
:1005E000CF911F910F910895CF93DF93282F30E083
:1005F000F901E859FF4F8491F901E458FF4FD49174
:10060000F901E057FF4FC491CC2389F081110E947A
:100610005B02EC2FF0E0EE0FFF1FEC55FF4F8591D2
:100620009491DC018C918D2321E030E011F420E0E5
:1006300030E0C901DF91CF9108958E3008F08E50DF
:1006400087702091100140E4249F90011124822B97
:1006500080937C0080917A00806480937A008091FE
:100660007A0086FDFCCF2091780030917900932F9D
:1006700080E0AC01422B9A01C90108951F93CF93EA
:10068000DF93182FEB0161E00E948502209711F49F
:1006900060E004C0CF3FD10539F461E0812FDF91E4
:1006A000CF911F910C94BD02E12FF0E0E859FF4F6C
:1006B000E491E330B9F028F4E13051F0E230B1F5E3
:1006C0000CC0E63019F1E73049F1E43079F514C097
:1006D00084B5806884BDC7BD2EC084B5806284BDEA
:1006E000C8BD29C080918000806880938000D0932D
:1006F0008900C09388001FC0809180008062809331
:100700008000D0938B00C0938A0015C08091B00008
:1007100080688093B000C093B3000DC08091B0009A
:1007200080628093B000C093B40005C0C038D1058A
:100730000CF0B3CFADCFDF91CF911F9108951F92F1
:100740000F920FB60F9211242F933F938F939F9385
:10075000AF93BF938091340190913501A091360100
:10076000B091370130913C01232F2D5F2D3720F4BC
:100770000196A11DB11D05C0232F2A570296A11D68
:10078000B11D20933C018093340190933501A093D7
:100790003601B09337018091380190913901A091D1
:1007A0003A01B0913B010196A11DB11D8093380122
:1007B00090933901A0933A01B0933B01BF91AF915F
:1007C0009F918F913F912F910F900FBE0F901F908F
:1007D00018950F931F938FB7F894009134011091DF
:1007E000350120913601309137018FBFB801C90121
:1007F0001F910F9108950F931F939FB7F894009145
:1008000038011091390120913A0130913B0186B5B0
:10081000A89B06C08F3F21F00F5F1F4F2F4F3F4F08
:100820009FBF322F212F102F0027080F111D211DD0
:10083000311D42E0000F111F221F331F4A95D1F7CF
:10084000B801C9011F910F910895CF92DF92EF92E5
:10085000FF92CF93DF936B017C010E94FB03EB01BE
:100860000EC00E94FB036C1B7D0B683E734038F08A
:1008700081E0C81AD108E108F108C851DC4FC11461
:10088000D104E104F10469F7DF91CF91FF90EF907B
:10089000DF90CF900895789484B5826084BD84B54C
:1008A000816084BD85B5826085BD85B5816085BD6B
:1008B000EEE6F0E0808181608083E1E8F0E0108284
:1008C000808182608083808181608083E0E8F0E0C5
:1008D000808181608083E1EBF0E0808184608083AF
:1008E000E0EBF0E0808181608083EAE7F0E08081E6
:1008F0008460808380818260808380818160808346
:100900008081806880831092C10008954F925F9229
:100910006F927F92AF92BF92CF92DF92EF92FF924F
:100920000F931F93CF93DF93CDB7DEB729013A0121
:10093000621B730B840B950B29893A894B895C895F
:100940002A193B094C095D09298B3A8B4B8B5C8B2F
:100950009B01AC0169897A898B899C890E94F10786
:10096000E418F50806091709A80197010E94230851
:100970002A0D3B1D4C1D5D1DB901CA01DF91CF91B0
:100980001F910F91FF90EF90DF90CF90BF90AF90AD
:100990007F906F905F904F900895CF92DF92EF928B
:1009A000FF920F931F93CF93DF936C01EB017A01BA
:1009B000E60EF71E00E010E00BC06991D601ED9144
:1009C000FC910190F081E02DC6010995080F191FD7
:1009D000CE15DF0591F7C801DF91CF911F910F91DF
:1009E000FF90EF90DF90CF900895DB010D900020F5
:1009F000E9F7AD0141505109461B570BDC01ED9160
:100A0000FC910280F381E02D09940C94F504DC0143
:100A1000ED91FC910190F081E02D09940F931F93CB
:100A2000CF93DF93EC016DE00E9407058C016AE033
:100A3000CE010E9407059C01200F311FC901DF91E3
:100A4000CF911F910F9108954F925F926F927F9275
:100A50009F92AF92BF92CF92DF92EF92FF920F934D
:100A60001F93CF93DF93CDB7DEB7A1970FB6F8945E
:100A7000DEBF0FBECDBF5C016A017B01922E19A2C1
:100A800081E0821710F08AE0982E8E010F5D1F4FD3
:100A9000492C512C612C712CC701B601A301920184
:100AA0000E9401088C2D929E801911240150110979
:100AB0008A3014F4805D01C0895CF801808369018B
:100AC0007A01C114D104E104F10431F7B801C50180
:100AD0000E94F504A1960FB6F894DEBF0FBECDBFFD
:100AE000DF91CF911F910F91FF90EF90DF90CF900A
:100AF000BF90AF909F907F906F905F904F900895C0
:100B00002115310541F4DC01ED91FC910190F0815A
:100B1000E02D642F09940C9424059A01462F50E08F
:100B200060E070E00C948005CF92DF92EF92FF922C
:100B30000F931F93CF93DF93EC016A017B01211583
:100B4000310579F4E881F9810190F081E02D642F7D
:100B5000DF91CF911F910F91FF90EF90DF90CF9099
:100B600009942A30310519F477FD0EC02AE0B70147
:100B7000A601CE01DF91CF911F910F91FF90EF90D1
:100B8000DF90CF900C9424056DE20E9407058C0144
:100B900044275527BA014C195D096E097F092AE0DF
:100BA000CE010E942405080F191FC801DF91CF91C3
:100BB0001F910F91FF90EF90DF90CF9008959A01D1
:100BC000AB01662757FD6095762F0C9494050F9323
:100BD0001F93CF93DF93EC019A01AB01662757FD7A
:100BE0006095762F0E9494058C01CE010E940E051F
:100BF0009801280F391FC901DF91CF911F910F91E3
:100C000008950E944B040E948C00CDEDD6E00E9416
:100C1000F5002097E1F30E94DD06F9CFFC01848501
:100C20009585FC01E05CFF4F20813181FC01EE5B8A
:100C3000FF4F80819181281B390B2F733327C90106
:100C40000895FC0184859585FC01E05CFF4F40819F
:100C50005181FC01EE5BFF4F208131814217530728
:100C600041F00190F081E02DE80FF91F208130E084
:100C700002C02FEF3FEFC9010895FC0184859585DF
:100C8000FC01E05CFF4F40815181FC01EE5BFF4FB6
:100C9000208131814217530781F0A081B181A80FD3
:100CA000B91F8C91208131812F5F3F4F2F733327E4
:100CB00031832083282F30E002C02FEF3FEFC9019E
:100CC0000895FC0186859785FC01E05CFF4FDC01FF
:100CD000AE5BBF4F408151812D913C9111974217DE
:100CE0005307C1F70895CF93DF93FC01868597855D
:100CF000DC01A05CBF4F2D913C9111972F5F3F4FBE
:100D00002F733327EC01CE5BDF4F488159812417C5
:100D10003507D9F30D90BC91A02DA80FB91F6C9386
:100D2000A685B785A05CBF4F11963C932E93A689EC
:100D3000B7892C9181E090E0058C02C0880F991F43
:100D40000A94E2F7282B2C9381E090E0DF91CF9179
:100D5000089508951F920F920FB60F9211242F93AA
:100D60003F934F938F939F93EF93FF934091C600D0
:100D70008091E0019091E10101968F739927209174
:100D8000E2013091E3018217930759F0E091E0010D
:100D9000F091E101E056FE4F40839093E101809392
:100DA000E001FF91EF919F918F914F913F912F9192
:100DB0000F900FBE0F901F9018958DE391E00E9449
:100DC0000E06892B11F00C94A90608951F920F921C
:100DD0000FB60F9211242F933F938F939F93EF930E
:100DE000FF9320919C0130919D0180919E019091F3
:100DF0009F012817390731F48091C1008F7D8093BE
:100E0000C10014C0E0919E01F0919F01E45AFE4F91
:100E1000208180919E0190919F0101968F73992767
:100E200090939F0180939E012093C600FF91EF91C4
:100E30009F918F913F912F910F900FBE0F901F9018
:100E40001895CF92DF92EF92FF92CF93DF93EC0150
:100E50006A017B01411581EE580761057105F9F0C2
:100E6000EC89FD8981E090E00E8C02C0880F991F0B
:100E70000A94E2F7808360E079E08DE390E0A701D7
:100E800096010E94010821503109410951095695E6
:100E9000479537952795211580E1380798F0EC891B
:100EA000FD89108260E874E88EE190E0A701960168
:100EB0000E94010821503109410951095695479571
:100EC00037952795E889F9893083EA89FB8920835A
:100ED000EE89FF89408181E090E09C010A8C02C08C
:100EE000220F331F0A94E2F7422B4083EE89FF89D9
:100EF00040819C010B8C02C0220F331F0A94E2F741
:100F0000422B4083EE89FF8940819C010C8C02C0FA
:100F1000220F331F0A94E2F7422B4083EE89FF89A8
:100F200020810D8C02C0880F991F0A94E2F78095EA
:100F300082238083DF91CF91FF90EF90DF90CF905D
:100F400008951092400110923F0188EE93E0A0E0D6
:100F5000B0E08093410190934201A0934301B0938C
:100F6000440187E191E090933E0180933D0180EA46
:100F700091E090934A01809349018CE591E0909330
:100F80004C0180934B0185EC90E090934E0180934F
:100F90004D0184EC90E09093500180934F0180ECE0
:100FA00090E0909352018093510181EC90E09093F6
:100FB00054018093530186EC90E090935601809306
:100FC000550184E08093570183E08093580187E0C6
:100FD0008093590185E080935A0181E080935B0101
:100FE0000895DB018F939F930E943F08BF91AF91BB
:100FF000A29F800D911DA39F900DB29F900D112473
:101000000895A1E21A2EAA1BBB1BFD010DC0AA1F49
:10101000BB1FEE1FFF1FA217B307E407F50720F061
:10102000A21BB30BE40BF50B661F771F881F991FDC
:101030001A9469F760957095809590959B01AC0125
:10104000BD01CF010895052E97FB16F4009407D03B
:1010500057FD0DD00E94010807FC09D07EF4909541
:101060008095709561957F4F8F4F9F4F0895509554
:101070004095309521953F4F4F4F5F4F08950E9407
:101080005008A59F900DB49F900DA49F800D911DB9
:1010900011240895EE0FFF1F0590F491E02D09949F
:1010A000A29FB001B39FC001A39F01D0B29F700D5A
:0C10B000811D1124911D0895F894FFCFBC
:1010BC000A000A00FF0314000000E803000001000E
:1010CC00010900000000007306CD040E063D062148
:0410DC0006610600A3
:00000001FF
