:100000000C9462000C948A000C948A000C948A0070
:100010000C948A000C948A000C948A000C948A0038
:100020000C948A000C948A000C948A000C948A0028
:100030000C948A000C948A000C948A000C948A0018
:100040000C94F6040C948A000C94AF030C94EB030C
:100050000C948A000C948A000C948A000C948A00F8
:100060000C948A000C948A00000000070002010032
:100070000003040600000000000000000102040864
:100080001020408001020408102001020408102002
:10009000040404040404040402020202020203032E
:1000A00003030303000000002300260029000000D2
:1000B0000000250028002B0000000000240027007D
:1000C0002A00A60411241FBECFEFD8E0DEBFCDBFAB
:1000D00011E0A0E0B1E0EAE4FBE002C005900D927F
:1000E000A232B107D9F711E0A2E2B1E001C01D923E
:1000F000A23DB107E1F710E0C4ECD0E004C02297C4
:10010000FE010E949F05C23CD107C9F70E94060369
:100110000C94A3050C940000CF9340E052EC61E0F6
:1001200070E082E291E00E94260461E071E082E2E8
:1001300091E00E94F20261E08DE00E94800161E0A6
:100140008DE00E94B801C2E060E08C2F0E94B801EF
:1001500060E08C2F0E948001CF5FCD30A9F781E055
:10016000CF910C94180282E291E00E9442039C011C
:100170002F3F8FEF3807B9F3C901089582E291E06C
:100180000E94130318161906CCF70E94B300893693
:10019000910531F174F481339105B9F11CF4C097E4
:1001A00069F728C080349105A1F08136910531F7B7
:1001B00049C08037910509F45BC024F48F3691055E
:1001C000E9F609C08237910569F186379105B1F6E4
:1001D0005CC060E448C082E291E00E9442034AC0F1
:1001E0000E94B3009C01225031092C30310530F6B9
:1001F00060E048C00E94B3009C01225031092C30BD
:10020000310508F0BBCF60E00AC00E94B3009C013A
:10021000225031092C30310508F0B0CF61E00E9446
:10022000B801ACCF0E94B3009C01225031092C30A0
:10023000310510F060E317C00E94EF010197D1F77C
:1002400061E311C00E94B3008630910520F40E9442
:100250001B02EC0102C0C0E0D0E06D2F82E291E011
:100260000E9478036C2F82E291E00E94780386CF8F
:100270000E94B3009C01225031092C30310508F056
:100280007DCF61E00E94800179CF0E94B300EC0134
:100290000E94B3009E01225031092C30310508F034
:1002A0006DCFBC018C2F0E943C0268CF833069F077
:1002B00028F48130A1F0823011F514C08630B1F0FD
:1002C0008730C1F08430D9F404C0809180008F77EA
:1002D00003C0809180008F7D80938000089584B555
:1002E0008F7702C084B58F7D84BD08958091B00062
:1002F0008F7703C08091B0008F7D8093B000089508
:10030000CF93DF9390E0FC01E458FF4F4491FC0150
:10031000E057FF4F8491882341F190E0880F991FA7
:10032000FC01E854FF4F25913491D90182559F4F2C
:10033000FC0185919491C82FD92F9FB7F8948C9187
:10034000611106C0409584238C938881842308C062
:10035000623041F4242F209582238C938881842B52
:10036000888302C0842B8C939FBFDF91CF91089527
:100370000F931F93CF93DF931F92CDB7DEB7282F34
:1003800030E0F901E859FF4F8491F901E458FF4F3B
:100390001491F901E057FF4F04910023D1F0882315
:1003A00021F069830E9456016981E02FF0E0EE0F91
:1003B000FF1FE255FF4F85919491DC019FB7F894A0
:1003C0008C91611103C01095812301C0812B8C9306
:1003D0009FBF0F90DF91CF911F910F910895CF9301
:1003E000DF93282F30E0F901E859FF4F8491F9019C
:1003F000E458FF4FD491F901E057FF4FC491CC234B
:1004000089F081110E945601EC2FF0E0EE0FFF1FE2
:10041000EC55FF4F85919491DC018C918D2321E067
:1004200030E011F420E030E0C901DF91CF91089570
:100430008093000108958E3008F08E5087702091CF
:10044000000140E4249F90011124822B80937C00C2
:1004500080917A00806480937A0080917A0086FD92
:10046000FCCF2091780030917900932F80E0AC018F
:10047000422B9A01C90108951F93CF93DF93182F40
:10048000EB0161E00E948001209711F460E004C05C
:10049000CF3FD10539F461E0812FDF91CF911F91DA
:1004A0000C94B801E12FF0E0E859FF4FE491E330FC
:1004B000B9F028F4E13051F0E230B1F50CC0E6308B
:1004C00019F1E73049F1E43079F514C084B580685A
:1004D00084BDC7BD2EC084B5806284BDC8BD29C09F
:1004E00080918000806880938000D0938900C093C1
:1004F00088001FC080918000806280938000D0932C
:100500008B00C0938A0015C08091B00080688093F2
:10051000B000C093B3000DC08091B00080628093A2
:10052000B000C093B40005C0C038D1050CF0B3CF03
:10053000ADCFDF91CF911F910895CF92DF92EF92CF
:10054000FF920F931F93CF93DF936C01EB017A011E
:10055000E60EF71E00E010E00BC06991D601ED91A8
:10056000FC910190F081E02DC6010995080F191F3B
:10057000CE15DF0591F7C801DF91CF911F910F9143
:10058000FF90EF90DF90CF900895DB010D90002059
:10059000E9F7AD0141505109461B570BDC01ED91C4
:1005A000FC910280F381E02D0994DC01ED91FC9136
:1005B0000190F081E02D09940F931F93CF93DF9367
:1005C000EC016DE00E94D5028C016AE0CE010E9430
:1005D000D5029C01200F311FC901DF91CF911F91DE
:1005E0000F9108950F931F93CF93DF93EC010E9417
:1005F000C5028C01CE010E94DC029801280F391F30
:10060000C901DF91CF911F910F9108950E9440057C
:100610000E948C00C2EED3E00E94BE002097E1F35E
:100620000E94E203F9CFFC0184859585FC01E05C22
:10063000FF4F20813181FC01EE5BFF4F8081918172
:10064000281B390B2F733327C9010895FC018485BA
:100650009585FC01E05CFF4F40815181FC01EE5B20
:10066000FF4F208131814217530741F00190F08103
:10067000E02DE80FF91F208130E002C02FEF3FEF9F
:10068000C9010895FC0184859585FC01E05CFF4F5C
:1006900040815181FC01EE5BFF4F20813181421787
:1006A000530781F0A081B181A80FB91F8C912081DF
:1006B00031812F5F3F4F2F73332731832083282FC2
:1006C00030E002C02FEF3FEFC9010895FC0186859D
:1006D0009785FC01E05CFF4FDC01AE5BBF4F4081C2
:1006E00051812D913C91119742175307C1F70895FD
:1006F000CF93DF93FC0186859785DC01A05CBF4F1B
:100700002D913C9111972F5F3F4F2F733327EC01B1
:10071000CE5BDF4F4881598124173507D9F30D90FF
:10072000BC91A02DA80FB91F6C93A685B785A05CBE
:10073000BF4F11963C932E93A689B7892C9181E0E7
:1007400090E0058C02C0880F991F0A94E2F7282BCD
:100750002C9381E090E0DF91CF91089508951F924E
:100760000F920FB60F9211242F933F934F938F93B5
:100770009F93EF93FF934091C6008091C5019091A4
:10078000C60101968F7399272091C7013091C80146
:100790008217930759F0E091C501F091C601EB571C
:1007A000FE4F40839093C6018093C501FF91EF9166
:1007B0009F918F914F913F912F910F900FBE0F906E
:1007C0001F90189582E291E00E941303892B11F08B
:1007D0000C94AE0308951F920F920FB60F9211243E
:1007E0002F933F938F939F93EF93FF9320918101DA
:1007F00030918201809183019091840128173907FB
:1008000031F48091C1008F7D8093C10014C0E091CC
:100810008301F0918401EF5BFE4F20818091830181
:100820009091840101968F7399279093840180930E
:1008300083012093C600FF91EF919F918F913F918B
:100840002F910F900FBE0F901F901895CF92DF92AF
:10085000EF92FF92CF93DF93EC016A017B01411588
:1008600081EE580761057105F9F0EC89FD8981E099
:1008700090E00E8C02C0880F991F0A94E2F78083E3
:1008800060E079E08DE390E0A70196010E947B058E
:1008900021503109410951095695479537952795BA
:1008A000211580E1380798F0EC89FD89108260E815
:1008B00074E88EE190E0A70196010E947B0521502B
:1008C0003109410951095695479537952795E8898A
:1008D000F9893083EA89FB892083EE89FF89408189
:1008E00081E090E09C010A8C02C0220F331F0A9421
:1008F000E2F7422B4083EE89FF8940819C010B8CFB
:1009000002C0220F331F0A94E2F7422B4083EE8984
:10091000FF8940819C010C8C02C0220F331F0A9476
:10092000E2F7422B4083EE89FF8920810D8C02C0C3
:10093000880F991F0A94E2F7809582238083DF91C4
:10094000CF91FF90EF90DF90CF9008951092250106
:100950001092240188EE93E0A0E0B0E0809326019D
:1009600090932701A0932801B093290185E191E09C
:10097000909323018093220185E891E090932F01C9
:1009800080932E0181E491E09093310180933001B6
:1009900085EC90E0909333018093320184EC90E0F9
:1009A000909335018093340180EC90E0909337016F
:1009B0008093360181EC90E0909339018093380167
:1009C00086EC90E090933B0180933A0184E0809321
:1009D0003C0183E080933D0187E080933E0185E008
:1009E00080933F0181E08093400108951F920F9210
:1009F0000FB60F9211242F933F938F939F93AF9332
:100A0000BF938091C9019091CA01A091CB01B0918F
:100A1000CC013091D101232F2D5F2D3720F4019689
:100A2000A11DB11D05C0232F2A570296A11DB11D7E
:100A30002093D1018093C9019093CA01A093CB0167
:100A4000B093CC018091CD019091CE01A091CF01C6
:100A5000B091D0010196A11DB11D8093CD0190935D
:100A6000CE01A093CF01B093D001BF91AF919F91E0
:100A70008F913F912F910F900FBE0F901F9018955F
:100A8000789484B5826084BD84B5816084BD85B569
:100A9000826085BD85B5816085BDEEE6F0E0808130
:100AA00081608083E1E8F0E0108280818260808351
:100AB000808181608083E0E8F0E0808181608083D4
:100AC000E1EBF0E0808184608083E0EBF0E0808106
:100AD00081608083EAE7F0E08081846080838081A8
:100AE0008260808380818160808380818068808350
:100AF0001092C1000895A1E21A2EAA1BBB1BFD0192
:100B00000DC0AA1FBB1FEE1FFF1FA217B307E407EC
:100B1000F50720F0A21BB30BE40BF50B661F771F44
:100B2000881F991F1A9469F7609570958095909524
:100B30009B01AC01BD01CF010895EE0FFF1F059091
:0A0B4000F491E02D0994F894FFCF22
:100B4A00014452432041726475696E6F20312E3020
:100B5A00000000000078039D021303420326036687
:020B6A00030086
:00000001FF
